:020000040800F2
:1000000000040020910100082B73000893010008F0
:100010009301000893010008930100089301000870
:100020009301000893010008930100089301000860
:100030009301000893010008930100089301000850
:100040009301000893010008930100089301000840
:100050009301000893010008930100089301000830
:100060009301000893010008930100089301000820
:10007000930100089301000893010008E58000083F
:100080009301000893010008930100089301000800
:1000900093010008930100089301000893010008F0
:1000A00093010008930100089301000893010008E0
:1000B0009301000893010008930100082D810008B6
:1000C00072B6244880F30888234880F30988022008
:1000D00080F31488BFF36F8F06F030FE06F0F4FB58
:1000E0001E481F491B4A914202DA08600431FAE7B0
:1000F0001C49194A914202DA08600431FAE71A49A8
:100100001A4A1B4B9A4204DA086810600431043220
:10011000F8E700201749184A914202DA08600431D2
:10012000FAE706F00FFE06F00AFE144C144DAC423E
:1001300003DA216888470434F9E702F049FB114CDF
:10014000114DAC4203DA216888470434F9E70F49BE
:100150000847000000040020000C002055555555AC
:10016000000000200004002028920008000C00205D
:10017000980D0020980D0020F8290020C0000008EC
:10018000C0000008C0000008C0000008416D000861
:1001900096E700F000F8FEE7F0B544464D465646B7
:1001A0005F46F0B46B46CB60C3689D46F0BCA0468A
:1001B000A946B246BB46F0BD62B6281CA047002047
:1001C00007F030F8FEE706F093FF024A024B136097
:1001D000FEE7C04604ED00E00000008002B4714676
:1001E00049084900095649008E4402BC7047C04680
:1001F00002B4714649084900095C49008E4402BCBA
:100200007047C04603B47146490840004900095A86
:1002100049008E4403BC7047002934D001230022DA
:1002200010B488422CD301242407A14204D2814275
:1002300002D209011B01F8E7E400A14204D2814285
:1002400002D249005B00F8E7884201D3401A1A4302
:100250004C08A04202D3001B5C0822438C08A04239
:1002600002D3001B9C082243CC08A04202D3001BEF
:10027000DC082243002803D01B0901D00909E3E769
:10028000100010BC704701B5002000F05FF802BDFF
:100290000029F8D003B5FFF7C1FF0EBC4243891A0D
:1002A0001847C046002941D010B404004C40A44671
:1002B00001230022002900D54942002800D54042F0
:1002C00088422CD301242407A14204D2814202D2C5
:1002D00009011B01F8E7E400A14204D2814202D2E5
:1002E00049005B00F8E7884201D3401A1A434C08E2
:1002F000A04202D3001B5C0822438C08A04202D318
:10030000001B9C082243CC08A04202D3001BDC083F
:100310002243002803D01B0901D00909E3E710009C
:100320006446002C00D5404210BC704701B5002047
:1003300000F00CF802BDC0460029F7D003B5FFF766
:10034000B3FF0EBC4243891A1847C0467047C046E7
:10035000002B11D1002A0FD1002900D1002802D092
:100360000021C943080007B4024802A140180290C6
:1003700003BDC046D9FFFFFF03B4684601B502982C
:1003800008F00EFA019B9E4602B00CBC7047C046B6
:10039000D0400B00D1409C46203AD34018435242F3
:1003A00063469340184370479140030090409C4639
:1003B000203A9340194352426346D3401943704751
:1003C00010B5002903D100F007F8203002E0080042
:1003D00000F002F810BDC0461C2101231B04984206
:1003E00001D3000C10391B0A984201D3000A0839C6
:1003F0001B09984201D30009043902A2105C40187D
:100400007047C04604030202010101010000000020
:100410000000000030B5032A0CD903000B439B07F2
:100420001CD103680C68A34218D1043A043004318B
:10043000032AF6D8551E002A0ED002780C78944272
:100440000ED101350123013904E0C25C0133CC5CDB
:10045000A24205D1AB42F8D1002030BD551EECE7D9
:10046000101BFAE7F0B5C64600B50F2A43D90B00BA
:10047000032603431E400C000300002E40D115004C
:10048000103D2D09AC462D01A846804400E03B00FC
:10049000676825685F60E7681D60DF601F00A5680A
:1004A00010379D6010344345F1D165460F230C246D
:1004B00001352D01491913404519144223D08C5997
:1004C000AC5104369C1B032CF9D80324043B9B0835
:1004D00001339B002240ED18C918561E002A07D090
:1004E000002300E02300CA5C5C1CEA549E42F9D160
:1004F00080BCB846F0BD0500561E002AF0D1F7E7D3
:10050000561E0500ECE71A00F6E7C046F0B50500F8
:1005100083074AD0541E002A44D0CEB203000322DF
:1005200002E00135013C3DD301332E701342F8D176
:10053000032C2FD9FF220A40150215432A04154324
:100540000F2C35D92700103F3F093E01B4461E004D
:100550001A0010366644156055609560D5601032FB
:10056000B242F8D10F260C2201373F012640DB1999
:100570003700224217D03E1FB608B400A4461A0026
:100580001C1D644420C2A242FCD103240136B600E3
:100590009B193C40002C05D0C9B21C1919700133BD
:1005A0009C42FBD1F0BD3400F4E714000300BFE728
:1005B0002700E0E713000122002809D1022907D80B
:1005C000022B05D802324A43D218024B5200D25AAB
:1005D000100070478A89000801430120002903D1D7
:1005E000024B50404000C05A7047C0468689000800
:1005F000F822411EFF39030010B50020520191423C
:1006000018D2802280210130FF3018409200441E11
:10061000A0411A40C900DC040DD50001002A01D018
:10062000202210430B4201D0402210431B0501D56C
:100630008023184310BDC0B2002A01D0022210430B
:100640000B4201D0042210431B05F3D50823F0E729
:1006500010B50C00FFF7CCFFA04710BD0300E03B36
:1006600010B50400072B02D90549002800D105491F
:100670002000FFF7EDFFE0B200F0E6F910BDC04644
:10068000950B0008750B000810B50400C0B200F00F
:100690001FFA2300E03B072B02D90449002C00D1AC
:1006A00003492000FFF7D4FF10BDC046A50B00088A
:1006B000850B00080120704710B5FFF7FBFF10BD48
:1006C000012070470120704710B5FFF7FBFF10BDF8
:1006D000704710B5FFF7FCFF10BD000013B5114BBC
:1006E00000901B780191002B16D16B465B79002B93
:1006F0000DD0002A0BD000F087FE04000100009806
:1007000000F042FE2000009901F020FE16BD009886
:1007100000F05AFE0400F5E7009800F075FE00991D
:10072000F2E7C0469D0D002010B5030000890A00C5
:10073000002806D158881988000408439988FFF7D3
:10074000CDFF10BD70B501210400FFF7EDFF2100C2
:100750000500FFF7B1FF0023984204D021002800D4
:1007600003F04EFD03000120184070BD10B50400D9
:100770000021FFF7D9FF2100FFF7ABFF10BD0120DB
:10078000704710B5FFF7FBFF10BD000010B5040067
:1007900000F026FA2000FFF7F4FF024806F047FDBC
:1007A00010BDC046A861000010B50120FFF7EEFFA4
:1007B00005F038FD10BD10B50020FFF7E7FF05F08C
:1007C00041FD10BD70B504000D0005F089F800284A
:1007D00004D001212800FFF7A7FF04002900200012
:1007E00005F0C0F9002801D1002070BD29002000CB
:1007F00002F06AFE0028F7D029002000FFF764FF0E
:100800000028F1D02900200004F036FA0028EBD0AF
:100810002900200005F086F80028E5D029002000F6
:1008200003F080FA0028DFD02900200004F0C6FF82
:100830000028D9D02900200004F07CFB0028D3D068
:100840002900200004F002F90028CDD02900200062
:1008500005F0E0F80028C7D06B79002B0CD0144BC2
:100860009C421ED00CD8134B9C4217D0124B9C427A
:1008700012D0033B9C420CD02800FFF721FFB4E7C5
:100880000E4B9C4210D00E4B9C42F5D101F0D6FA93
:10089000F2E7FFF789FFA7E701F0E6FAFFF78BFF22
:1008A000A2E701F0D7FAE7E701F0D9FAE4E7C0469A
:1008B0005A7C0000017C0000037C00005B7C00008F
:1008C0005C7C000010B504000121FFF72DFF210022
:1008D000FFF778FF10BD10B505F0E9FB00F035F823
:1008E00010BD10B500F036F805F0E6FB10BD0300B2
:1008F000020A0020824201D0130008301A0902D0F7
:1009000013000430C0B29A0802D013000230C0B203
:100910005B0801D00130C0B27047704701207047BA
:10092000704770B5051CFFF7F9FF041E02D0281CA4
:10093000FFF7F6FF200070BD704710B50400FFF709
:10094000ECFF201CFFF7EDFF10BD10B50020FFF7F6
:10095000F4FF10BD10B505F007FAFFF7EEFF10BD6C
:1009600010B505F001FA074B04001A78824207D04F
:10097000187005F0F3FB044B18602000FFF7DDFF53
:1009800010BDC0469C0D0020980D002010B586B00B
:100990000B0A0191C9B20090DBB2002903D01D49B6
:1009A0000A6801320A60002B01D001F0C5F8042466
:1009B0001220220000216844FFF7A8FD009B6A4630
:1009C00003936B469B881382134B5B78234210D0B2
:1009D000124B5B88002B0CD001F05AF8002802D093
:1009E000022001F0FBF901F02FF8002801D001F0FE
:1009F00037F96B461B7C002B06D103980499059AA6
:100A000000F0B8FF06B010BD03A8FFF79BFE00285A
:100A1000F3D1F7E7A00D00201C280020C6280020F5
:100A2000037910B5012B02D1008800F00FFD10BD35
:100A300010B5002904D004F0D7FB04F0B5FC10BDBC
:100A400004F03AFCF9E7000010B5041E11D0031FB2
:100A5000DBB2A02B0ED805F00BFA002804D0200042
:100A600005F08EFA01F074F9200005F06DFA01F03E
:100A70006FF910BD03002033DBB2072B07D8072026
:100A800004400638A040C0B201F02AF8EFE70300A6
:100A90005B33DBB2022B04D8243880B205F090F926
:100AA000E7E703005833DBB21A2B05D8074A5B008F
:100AB000985A05F09FF9DCE703003333DBB2122BC1
:100AC000D7D804F091FB04F06FFCD2E79C890008B2
:100AD00010B5002807D0031FDBB2A02B04D805F007
:100AE0004FFA01F035F910BD03002033DBB2072BBC
:100AF00007D80723034001209840C0B200F0F8FF58
:100B0000EFE703005B33DBB2022B03D8002005F0D4
:100B100057F9E8E703005833DBB21A2B03D800205B
:100B200005F068F9DFE703003333DBB2122BDAD8C4
:100B300004F0C2FB04F038FCD5E770B505000C00EA
:100B4000FFF782FF002C03D12800FFF7C1FF70BD23
:100B50006420013C06F06BFBA4B2F3E710B5044B34
:100B6000392803D1198CFFF7E8FF10BDD98BFAE7BC
:100B7000C628002010B5002803D000F0B1FF01F016
:100B8000E7F810BD10B5002803D000F0B1FF01F068
:100B9000DFF810BD10B5002803D000F0BDFF01F054
:100BA000D7F810BD10B5002803D000F0BDFF01F04C
:100BB000CFF810BD10B5002005F002F9002005F0B7
:100BC00019F900F0B9FF01F0C3F804F007FC04F0D4
:100BD000EBFB10BD10B505F0EFF9FFF7EBFF10BD13
:100BE00010B500F08DFFFFF7F5FF10BDC2B2000495
:100BF000000F062818D00F2306280ED80E30034009
:100C00000020012B08D80120F02A05D007D80020A9
:100C1000E72393424041C0B270470630EFE7F43A11
:100C2000100043425841F6E70120E72AF4D9F13A8F
:100C300053425A41D0B2EFE70279030010B5101EBB
:100C400006D01889002804D001F098FAFFF7CEFFEB
:100C500010BD188800F0FAFBF8E70000F0B58379C2
:100C600085B01B090C1C45790290009300F028FF09
:100C700027040190002828D00195002D25D03B0E97
:100C80000F2219009143402910D0E1B20A00002040
:100C90002032D2B20190072A17D91F229343202B6A
:100CA00004D1012911D9009B83420ED00022AC4B04
:100CB00001925B785B0708D5022001F08FF800F005
:100CC000FFFE01234340DBB201933B0F03930B2B49
:100CD0003FD81800FFF796FA0C000C006700670079
:100CE000000115013D003D001A017F0190019001B6
:100CF0000F2326053F0E360F9F4300D03601E7B283
:100D0000002D12D0002E0BD03B002033DBB2300080
:100D1000072B01D9002F05D100F0E2FE01F018F8F1
:100D2000380061E000F0F8FEF8E73800FFF7D0FE89
:100D3000002E0ED03B002033DBB23000072B01D950
:100D4000002F02D100F0D4FE01E000F0EDFE00F033
:100D5000FFFF039B083B032B03D805F005F8FFF7C3
:100D6000ECFD201CFFF742FF002800D0E6E1002246
:100D70007C4B1A60019B002B13D000F081FE0123F5
:100D800002001A4018420CD1029B5A7100F072FE08
:100D900000F08CFA029800F015FA00F06BFE00F0FB
:100DA00091FA05B0F0BD0F2326053F0E360F9F4385
:100DB000202F00D03601E7B2002F07D0012F5AD0E4
:100DC000009B002D68D0002B1DD0A9E7644B5B78F9
:100DD0005B0713D4002D0AD0002E04D0300000F0A1
:100DE0007FFE00F0B5FF0020FFF72EFEB1E72800E0
:100DF000FFF76EFE002EACD03000A3E7009B002D65
:100E00001ED0002B03D13000FFF7B4FEA1E7009BFA
:100E1000012B03D1300000F0DDFE9AE7524B1B7F1F
:100E2000012B96D9009A934200D092E73000FFF749
:100E3000A1FE300000F0E4FE300000F0A7FE88E7DD
:100E4000002B09D13000FFF79DFE300000F0D8FEE6
:100E5000300000F0ABFE7CE7434B1B7F012B00D83A
:100E600077E7009B012B00D073E700F033FE0642CA
:100E700000D16EE7E6E73C4B009A0333DB7F002DA1
:100E800003D09A4200D964E7BDE79A4200D360E7F5
:100E90003000FFF777FE5CE7002BF9D0324B392F9B
:100EA00018D1188C00280ED0002329002F4A07F0F3
:100EB00053FC00232E4A80185941FA220023920045
:100EC000FFF746FA00E0012006F0B1F93800FFF71D
:100ED000FFFD3EE7D88BE5E72005800F0AD001280B
:100EE00000D036E70020854201D0A005800D04F037
:100EF00081FF2EE7002D01D0A005800D04F060FFDA
:100F000027E72900E0B2FFF793FD22E7BF01BF0FFB
:100F100030D1002D00D01CE72206520F920020078E
:100F2000D2B2000F904083B22800E10603D50F3003
:100F30009040C04380B22205920F1843022A09D084
:100F4000032A0AD0012A02D000F082F901E700F05A
:100F500075F9FEE600F086F9FBE600F06AF9F8E6BE
:100F60001C280020A00D0020C6280020A08601001B
:100F7000E7030000A3059B0FDAB2002D1DD0DB07AD
:100F800000D4E6E62206520F92002007D2B2000FEC
:100F9000904083B20020E10603D50F309040C0435B
:100FA00080B22205920F1843022A0ED0032A0FD0D6
:100FB000012A07D000F0A8F9CBE602231A4200D19B
:100FC000C7E6DFE700F096F9C3E600F0A7F9C0E650
:100FD00000F058F9BDE62605E7B2360F002D04D023
:100FE000300000F063F938000EE73800FFF7CAFD63
:100FF000300000F067F9ACE6E6B23000F0380428C3
:1010000071D8FFF7F5F8032A151C26005D4B009AEE
:101010000333DB7F002D07D09A4200D399E6E0042A
:10102000C00E00F05BF994E69A4200D991E6F6E72B
:10103000E004C00E002DDCD100F038F989E6002D67
:1010400004D0E004C00E00F02AF982E600F022F994
:101050007FE64D4B5B785B0704D4E004C00E002DA7
:10106000C7D0E9E7474E337F012B2FD9002D1DD084
:1010700000F006FD042808D100F0A2FEE004C00E36
:1010800000F020F90023019363E60022337F0192F0
:10109000009A934200D85CE6E604F60E300000F0B9
:1010A00005F90321300000F06DFE52E6009A9342EC
:1010B00008D800F085FEE0040421C00E00F062FEB6
:1010C000019546E6012000F089FEF9E7002DE3D105
:1010D000012000F083FE009B012B00D839E602209E
:1010E00000F07CFE35E6009B002D06D0002B01D0E1
:1010F000300079E6E004C00E9EE7002B1BD0214BA8
:10110000392E16D1188C00280ED0002329001F4A32
:1011100007F022FB00231E4A80185941FA220023BF
:101120009200FFF715F900E0012006F080F830008A
:10113000CDE6D88BE7E7E004C00E5AE7009B002D10
:1011400003D0002B00D012E614E6002B00D00EE6F0
:10115000029A029B50881B88000491881843009AC9
:10116000FFF7BCFA029902F087FB002800D1FEE5E8
:10117000084B1B68022B00D0F9E5E0B2FFF7EEFC4C
:10118000F5E5C046C62800201C280020A0860100E6
:10119000E7030000A00D002070B5040000890028BE
:1011A0000BD000F0EBFF051C00F0C2F800F040F897
:1011B000291C2000FFF752FD70BD6079218800F0E6
:1011C0004FF9F0E7037910B50400002B11D0FFF7B9
:1011D00079FB00280ED100F073FC002809D0637958
:1011E000002B06D0074B5B785B0702D5022000F08E
:1011F000F5FD10BD2000FFF7CFFF2000FFF7B6FA86
:10120000F7E7C0461C28002082B002B0704784B0C7
:1012100004B07047704710B5FFF7FCFF10BD000029
:1012200010B5FFF7F8FF014B188010BDA40D00208A
:10123000704710B5FFF7F4FF10BD000010B5034B69
:101240001B881843FFF7ECFF10BDC046A40D00201B
:1012500010B5034B1B881840FFF7E2FF10BDC046D6
:10126000A40D002010B5034B1B885840FFF7D8FF92
:1012700010BDC046A40D0020704710B5FFF7FCFF5D
:1012800010BD000010B5FFF7F8FF014B188010BD2E
:10129000AA0D002010B50020FFF7F4FF10BD0123B8
:1012A000834010B598B2FFF7EDFF10BD01238340D6
:1012B000034A10B51088184380B2FFF7E3FF10BD52
:1012C000AA0D00200123834010B5034A10889843DB
:1012D000FFF7D8FF10BDC046AA0D002001238340B0
:1012E000034A10B51088584080B2FFF7CBFF10BDFD
:1012F000AA0D002010B5034B1B881843FFF7C2FF4F
:1013000010BDC046AA0D002010B5034B1B88184025
:10131000FFF7B8FF10BDC046AA0D002010B5034B63
:101320001B885840FFF7AEFF10BDC046AA0D002035
:10133000704770B50126CB089B00D21807233500F3
:1013400019408D400021EDB20300CB40545C334086
:101350005B4263402B406340535401310429F3D175
:1013600070BD30B5072400220440C0088000091871
:10137000012510008B5CE3402B4093400132184361
:10138000C0B2042AF6D130BD07B5030401AA10800B
:101390001B0E0800F02B0AD01178022B08D8022966
:1013A00005D803225343064A5918FFF7C2FF07BD69
:1013B0000433DBB2012BFAD8024A89B2F5E7C04602
:1013C000AC0D0020A60D002007B5030401AA108073
:1013D0001B0E0020F02B0AD01278022B08D8022A0C
:1013E00005D80330584306498018FFF7BAFF0EBDF1
:1013F0000433DBB20020012BF9D8024990B2F4E7A4
:10140000AC0D0020A60D0020F7B50F2401270D4BD1
:1014100001AE1A880C4B30801B881A430092009B47
:10142000E5B223413B4204D1013CF8D2002528001B
:10143000FEBD2800316800F0B7FF80B20128F3D06C
:10144000F5E7C046AA0D0020A40D002007B501ABAA
:1014500018800198FFF7D8FF019900F0A5FF0EBD95
:1014600037B50F4B01AD1B782980002B03D00198B5
:10147000FFF7ECFF3EBD00280CD02868FFF7C4FF43
:10148000040001002868FFF77FFF2000019900F0A9
:101490008BFFEFE72868FFF797FF0400F5E7C046EA
:1014A0009D0D002030B50400012005008D4029006D
:1014B0000500954098402A00030020000A4391B29D
:1014C000984322408A4201D1234398B230BD0000A4
:1014D00010B504001300044A10880A002100FFF729
:1014E000E1FFFFF7CFFE10BDAA0D002070B50A2561
:1014F00007260C4B1C780C4B1B78A34200D170BD07
:101500002B006343094A0134995AD31858889A88A2
:1015100000040843D9883440090411431A89FFF7AD
:1015200076FEE8E70F0E00200E0E0020BE0D002014
:10153000064B10B558881A88D988000410439A8839
:10154000090411431A89FFF762FE10BDB40D002093
:10155000F7B5072701900E480E4B00781B780090D6
:101560000D48009CA34201D10020FEBD0A255D4329
:10157000441966788E4206D12D5C019EB54202D197
:101580006479944202D101333B40EAE70120ECE761
:101590000E0E00200F0E0020BE0D00200F22F8B509
:1015A0001D4CA379934331D16379002B2ED01B4B73
:1015B0001E781B4B1B78B34228D00A237343194D66
:1015C000ED182B79002B22D02A8823889A421ED12D
:1015D000697900291BD16F8863882000FF1AFFF703
:1015E000A3F82100BFB201F057FF87420FD20F21AD
:1015F0001022A37920000B401343A371AB790B4059
:101600001A43AA71FFF7DEFDFFF770FFF8BD07234D
:1016100001361E40CDE7C046B40D00200F0E00205D
:101620000E0E0020BE0D0020F0B504008FB009AEF4
:10163000010006223000FEF715FF6379B34D0193D8
:10164000237902932B79002B1FD1029B002B03D10E
:10165000012738000FB0F0BD019B002B11D02000F6
:10166000FFF7EAFA071E0CD00A2221002800FEF735
:10167000F9FE2800FFF7D4F9FFF790FFFFF758FFB6
:10168000E7E72000FFF79EFDE2E7237800210493BF
:1016900063782800059363880393FFF745F8069065
:1016A0006B88039A6F79D31A9BB2002F00D1D3E0D5
:1016B000002128000793FFF737F8290001F0ECFE1E
:1016C000079B834200D396E0029B002BC0D0AA79EF
:1016D0000F231600288821889E4353D1884214D1B5
:1016E00028892189884210D10199002900D033E14D
:1016F000134010221343AB71FFF71AFF2800FFF7C6
:1017000061FDAB79A3710027A3E7019B002B00D0FB
:1017100022E11A0005990498FFF71AFF002800D16A
:10172000F6E07A49069802F097F8002800D1EFE039
:10173000764C2000FFF746FD0A2200212000FEF72C
:10174000E5FEFFF7F5FEDEE706320A40012A10D972
:101750002000FFF737FD3D00FCE0000E014202D003
:10176000002B00D1F6E02033DBB2072B00D8F1E0EC
:10177000EEE7EF2B00D8EDE00F33DBB2022B00D801
:10178000E8E0E5E7884210D12989238999420CD104
:10179000019B002B09D1A2712000FFF713FD0A2243
:1017A00021002800FEF75EFE68E72000FFF744FAFC
:1017B000002800D165E7019B002B00D161E7534B66
:1017C0009A791F2A0DD919880BA8018003994180A5
:1017D000197982710171002141711B890381FFF721
:1017E000F1FC0A2221004948FEF73CFEFFF7D6FE35
:1017F000FFF79EFE2CE7AB790F221900914306916B
:1018000011D1029B3371049B3370059B7370019B54
:10181000737103CEFFF7F8FC2800FFF7D3FC0A2210
:10182000280006998BE7029A002A00D110E7298840
:1018300022889142B9D1298922899142B5D1019A50
:10184000002AB2D12000A371FFF7BCFC0A222800B5
:101850000199FEF75BFEFCE6390028000693FEF7CF
:1018600063FF290001F018FE069B83423DD2029BD4
:10187000002B00D1ECE6019F002F00D101E72A8860
:1018800023889A4223D12A8923899A421FD16B88BF
:10189000039AD31A9BB2C72B13D8AB79DA0710D4AB
:1018A0000F2293430DD0AA79A271F02B00D173E7D8
:1018B0000F21D3B21A09013212010B401343A37155
:1018C0006AE70A2221002800FEF7CCFDC1E62000CD
:1018D000FFF7B2F9002800D083E70123AA7920009E
:1018E0001343AB71FFF76EFCB3E6029B3371049BAD
:1018F0003370059B7370019B737103CEFFF784FCFB
:101900000A2239002800FEF701FEB7E6B40D0020D8
:10191000002205990498FFF71BFE051E00D0F2E691
:10192000049A09AB1A70059A5A700998FFF78EFD50
:10193000C3B200040F21020F032A00D904E7012AD1
:1019400000D80AE7000E014200D10CE7A2798A43D1
:1019500000D008E72F007CE60123054906988A7924
:1019600013438B7101F080FF002800D1CBE6DFE646
:10197000B40D0020F0B589B001AE01903000716067
:10198000B260FFF751FE294D071E294C0CD0337968
:10199000002B02D007CEFFF73AFC0A2720782B78DD
:1019A000834227D109B0F0BD320005AB9C4603CA83
:1019B00003C312881A803379002BEED007232878CE
:1019C000461C1E4023789E420AD00A225043194BDF
:1019D00061461818FEF746FD2E70FFF787FDDCE71D
:1019E000FFF7FEF80A22390013482F702770FEF720
:1019F0008DFDD2E778430F4E3018FFF715FE002813
:101A0000D0D023787B439A5BF6187088F188B3882E
:101A100000040904104319433289FFF7F8FB072239
:101A20002378013313402370B8E7C0460E0E002020
:101A30000F0E0020BE0D0020B40D0020014B1878C1
:101A40007047C046640E002070B50024074D6B88B7
:101A5000A34208D004F0BAFB054B1B88C01A6B8860
:101A600080B298426441200070BDC046C628002064
:101A7000660E0020014B1878C0087047600E0020E9
:101A8000024B1878072318407047C046600E0020AC
:101A900010B504F09BFB074B074A1B885288C31AFA
:101AA0009BB200209A4204D8044B01301B789B085B
:101AB000984310BD620E0020C6280020600E002052
:101AC000034B187807231840431E9841C0B2704753
:101AD000600E0020014B18787047C046680E002049
:101AE000024B1A78104318707047C046680E0020E9
:101AF000024A1378834313707047C046680E002073
:101B00000022014B1A707047680E0020014B1878B4
:101B10007047C0466A0E0020024B1A7810431870B6
:101B20007047C0466A0E0020024A13788343137040
:101B30007047C0466A0E00200022014B1A707047A1
:101B40006A0E0020014B18707047C0466B0E0020D3
:101B50000022014B1A7070476B0E0020014B187069
:101B60007047C046690E00200022014B1A70704772
:101B7000690E0020014B18787047C046650E0020A2
:101B8000704710B5FFF7FCFF10BD000003001900FF
:101B900010B5054A10780140994203D018431070DF
:101BA000FFF7EFFF10BDC046640E0020030010B524
:101BB000044A1078034203D098431070FFF7E1FF06
:101BC00010BDC046640E0020704710B5FFF7FCFF43
:101BD00010BD000070B5084D04002B78034083420F
:101BE00009D004F0F3FA054B18802B78200023432A
:101BF0002B70FFF7EAFF70BD650E0020660E002017
:101C000010B5084C237818420BD083430020237072
:101C1000834201D004F0DAFA034B18802078FFF7F2
:101C2000D4FF10BD650E0020660E0020094B70B574
:101C30005B7804005B070BD5074D2B78834207D0F8
:101C400004F0C4FA054B2C7018802000FFF7BDFF8C
:101C500070BDC0461C280020650E0020660E0020C6
:101C600010B5054B1A78002A05D000201870034BD8
:101C70001880FFF7AAFF10BD650E0020660E002039
:101C800070B5114B114D1C78114B18782B7804430B
:101C9000002B11D00F4B5B88002B05D0FFF7D4FE33
:101CA000002801D0FFF7DCFF2B781C4304F0BCF8C0
:101CB000002801D0FFF7D4FF074B084A1B781078A3
:101CC0009C43204370BDC046680E0020650E002076
:101CD0006A0E0020C6280020690E00206B0E00202E
:101CE00070B50B4C2568FFF7CBFF28702468094DB1
:101CF000082229002000FEF78DFB002807D00822CB
:101D000021002800FEF7AEFB200004F037F870BD7C
:101D1000000C0020580E002070B50B4C2568FFF712
:101D2000AFFF68702468094D202229002000FEF7CB
:101D300071FB002807D0202221002800FEF792FB2B
:101D4000200004F025F870BD040C0020380E00209F
:101D500010B5074B1B78002B06D0064B1B787F2B4A
:101D600002D9FFF7D9FF10BDFFF7BAFFFBE7C04666
:101D7000780D00201C280020704710B5FFF7FCFFED
:101D800010BD00000B4A0B00527810B552070ED55B
:101D9000094CC10019432170FFF788FA04F016FAC4
:101DA000064B18802078C008FFF7E7FF10BDFFF74B
:101DB0007DFAFBE71C280020600E0020620E002048
:101DC000002010B5034B1870034B1880FFF7D5FFA8
:101DD00010BDC046600E0020620E002010B5094AFA
:101DE00013781900814311704A070AD1994208D02B
:101DF000054B5B785B0704D5C808FFF763FAFFF76C
:101E0000DFFF10BD600E00201C2800200A4A10B51C
:101E100053785907C90F81420CD001210840033182
:101E20008B43800018435070108800F044F8022063
:101E3000FFF7D4FF10BDC0461C280020044B10B58E
:101E4000587801234007C00F5840FFF7DFFF10BD4F
:101E50001C28002010B50120FFF7D8FF10BD10B5D9
:101E60000020FFF7D3FF10BD10B500F0EDFE0020FD
:101E7000014900F024FD10BDFFFF0000002010B557
:101E800000F0C1FC034B020000209A4201D103F094
:101E900011FE10BDE6FE000010B5022000F0A6FC09
:101EA00010BD10B5032000F0A1FC10BD10B504203A
:101EB00000F0A9FC10BD10B50100042000F0FFFCEB
:101EC00010BD10B501000F2000F005FD10BD10B5CC
:101ED0000100132000F0FFFC10BD10B50020FFF73B
:101EE000F6FF10BD10B50020FFF7EBFFFFF7F5FF81
:101EF00010BD000007B500F0A7FE0020214900F04A
:101F0000DEFC0021022000F0CEFC01211E4B03204C
:101F1000198000F0C8FCA0210420490100F0CFFC8A
:101F20000021062000F0BFFCFF21072000F0BBFCD1
:101F30000021082000F0CFFC0021242000F0B3FC99
:101F40000021172000F0AFFC00210C2000F0ABFCBA
:101F500000210D2000F0A7FC002300221821009290
:101F600001936846083200F081FC0021202000F037
:101F7000B2FC002003F0B2FD03F0D7FDFFF7B2FF83
:101F800007BDC046E6FE0000A40D002010B5FFF717
:101F9000B1FF10BD10B501000E2000F084FC10BD93
:101FA00073B504F013F9094D04002B8883420CD05B
:101FB0006B4600261E8004F009F96B469E8058800F
:101FC00000980199FEF7E2FC2C8073BD780E00208A
:101FD00010B504F0C3F8024B1860024B186010BD36
:101FE000700E0020740E002010B504F0B7F8024BFC
:101FF0001860024B186010BD700E00206C0E00209F
:102000007047704710B5FFF7FCFF10BD704710B563
:10201000FFF7FCFF10BD01207047000010B5074816
:1020200000F09CFA00F00CFE00F0AEFF01F062FB45
:10203000FFF7E6FFFFF7E6FF10BDC0465525000895
:102040000120704710B5FFF7FBFF10BD70477047C8
:1020500010B5FFF7FBFFFFF7FAFF10BD10B500F05A
:102060009FFAFEF769FC10BD10B504F073F803F099
:102070006BFD01F049FC00F01BFBFFF7EFFFFFF7E2
:10208000C6FF10BD10B502F0DBFD03F09BFC02F0B3
:1020900065F801F0FDFD10BDF0B587B0FFF7BBFF9F
:1020A00000280FD1FFF77CFFFFF7ECFF01F05EFC8B
:1020B000002801D0FFF798FF03F0BAF9FEF750FCB3
:1020C00007B0F0BD00F00CFB2A4C0020257800F092
:1020D0009FFA85420BD10120657800F099FAA84259
:1020E00005D10220A57800F093FA8542DAD0224B80
:1020F0001B789B0701D500F091FAFFF7A3FF01942D
:1021000000240390200000F083FA019B05001B7857
:10211000984225D0002601274340DBB20293029B60
:102120001F4215D0039B002B12D004AB1E705C70B5
:1021300004F04CF8012204AB1A7158803B002B408C
:102140005A1E934104AA537104980599FEF71EFC88
:1021500001367F00F6B2FFB2032EE0D1019B1D7065
:10216000019B01340133E4B20193032CCAD1FFF780
:102170002FFF99E77A0E00207D0E002070B500F049
:102180001DF9A4230400DB0198424CD2A020C00119
:10219000844200D39EE0DF2C1BD8CC2C40D8A72C47
:1021A0000AD8A42C00D978E0012C68D0231F9BB258
:1021B000A02B64D9002462E02300A83B9BB21A2B19
:1021C000F8D85834524BE4B26400E05A8824E40151
:1021D00054E08023DB019C421AD28026B601B4422F
:1021E00000D385E0E72C4AD9631EFF3B013EFF3E4A
:1021F0009BB2B342DED2200AC0B200F05FF9050004
:10220000E0B200F0DBF82D0235400543ACB236E019
:10221000E0B200F0D3F8F0231B011C4004433D481A
:102220000443A4B22BE0A523DB0198421CD23A4B15
:1022300098423CD8394B98420CD8394B984231D807
:102240000323C4B2A0081C40023BA3404001354C0C
:102250001843E5E70323234001249C40C006400FB8
:1022600040012043304CDBE7304B984209D81F2017
:102270002F4B20409C4224D82E4C00020443201CAB
:1022800070BD2D4BC3189BB21F2B00D992E7F824C9
:10229000000264012040294CF0E72000802424380B
:1022A000E401BDE71F2020400002254CE6E70323A0
:1022B000234001249C40C006400F40012043214C94
:1022C000AEE700F0FBF8F82400026401204001347E
:1022D000FF34D3E71F20204000F0F0F8E405240F7E
:1022E0002402C30600D5000100B22043164C97E734
:1022F000E004C00E00F0E2F80500E0B2F82400F0BF
:102300005DF82D0264012540054335437EE7C04654
:10231000D289000800A0FFFF5F5200003F5200007A
:102320001F520000008DFFFF008CFFFFBF52000016
:102330009F520000F4A0000040ADFFFFF0A000009D
:10234000F1A00000008AFFFF0090FFFF13B501AC71
:1023500021800021124B1B688B4208D122786478BF
:102360001900F02C05D1F02A01D10E4B1988080074
:1023700016BD022C06D8022AF9D8210002F078FAFC
:102380000100F4E7FD2C05D1002AF0D1013202F062
:102390007CFAF5E7FC2CEAD1002AE8D11A00F6E72E
:1023A000AC240020C428002007B501AB1980019996
:1023B000FFF7CCFFFFF7E2FE0EBD0000030010B5F3
:1023C000E72808D8DF2808D8312861D00ED8292876
:1023D00055D02A2862D0180010BDE0380728FAD856
:1023E000FDF7FCFE18F9252A38F93F44392808D0B2
:1023F000822806D03528EED12F4A12789206EAD5E7
:1024000006E02D4A1178890750D152781207E2D59B
:102410002923E0E70121284802780A4236D1407892
:102420000842D8D0E323D206D5D50023D3E7224AE9
:1024300012785107F6D4CEE71F490A78500733D4F3
:102440004978C90732D410210A4051424A415242C8
:102450001340C0E7184A51788907BCD51278E723A2
:10246000E1E7154A12781107F9D4B4E712490A785E
:1024700010071DD449788907E5D5E423ABE70E4A58
:102480001178890616D452781207A4D53923A2E709
:10249000094A127852069ED52A239CE7064A1278EA
:1024A000520698D5312396E7E22394E7E02392E79A
:1024B000E62390E735238EE71C28002030B5244C16
:1024C00021784B070DD514220240043A53425A4159
:1024D00018230340083B5D426B419A4201D00C2314
:1024E00058400B070DD514220240143A53425A416A
:1024F00018230340183B5D426B419A4201D00C23E4
:1025000058406478E3070DD511220240013A534246
:102510005A4118230340083B5D426B419A4201D067
:1025200009235840A3070DD511220240113A534206
:102530005A4118230340183B5C4263419A4201D040
:1025400009235840CB0601D51823984330BDC04617
:102550001C2800200020704700207047014B1860A5
:102560007047C046080C002010B5FFF77DFC10BD79
:1025700010B500F0B5F8074804F059FE00F0B0F8C7
:10258000002000F045F8C30703D5FFF7EDFF03F087
:1025900049FE10BDB80B000010B5FFF7E9FF10BDF4
:1025A00010B5FFF76BFC002801D1FFF7EFFCFFF738
:1025B00073FC094B1870FFF779FC084B1880FFF784
:1025C000EBFFFFF76EFC80B2FEF733FE044B18887A
:1025D000FEF753FE10BDC0467D0E00201C280020D3
:1025E000AA0D0020704710B5FFF7FCFF10BD704723
:1025F00010B5FFF7FCFF10BD044B1B5C01208840A9
:102600001840431E9841C0B27047C04621280020A0
:10261000014B185C7047C04621280020704700001D
:10262000F7B500250C270F263B0000246B430B4A0F
:10263000D3180193019AA300D058431C07D003007C
:102640000121334099402022B04305F0A4FC01341D
:10265000032CEFD10135032DE6D1F7BD088A000820
:10266000F7B501900C204843104B032218180123A2
:1026700000269C46056800246F1C0BD00F272C00F9
:10268000BC4324693D40EC406746250000243D42A0
:1026900000D11C00013A26435B00D2B2F6B2DBB295
:1026A0000430002AE6D1019B5E54F7BD088A000879
:1026B00010B50324FFF7B4FF220000210648FDF700
:1026C00025FF220000210548FDF720FF200000F033
:1026D0003DF8FFF788FF10BD212800201E280020AC
:1026E00037B50222164901A8FDF7BCFE6B46002152
:1026F00001A89971FFF7B4FF012101A8FFF7B0FF0E
:10270000022101A8FFF7ACFF0E4C0322200001A913
:10271000FDF780FE05006B1E9D41EDB2002804D040
:102720000322200001A9FDF79DFE2B00032206498C
:10273000200000F00DF80400FFF75AFF20003EBD16
:10274000808800081E2800202128002070470000F3
:10275000F7B505000C001600134F0093002B07D0AF
:1027600001233B7003F0FAFC104B18600020FEBD03
:102770003B780193002BF9D00C4B186803F032FD25
:102780000428F3D9320029002000FDF743FE002879
:1027900006D0320029002000FDF764FE019B009363
:1027A000002300983B70E2E77E0E0020800E0020A0
:1027B00010B504F09BF8FFF757FC04F0ADF810BD1E
:1027C00010B504F0B1F8FFF767FC04F0D1F810BDC4
:1027D00010B503F089FC04F085F8FFF71FFCFFF744
:1027E000E7FFFFF7EDFFFFF733FCFAE707B500233C
:1027F0006A46D3716B4601000122D81D00F028FA09
:102800006B46D8790EBD07B500236A46D3806B4668
:1028100001000222981D00F01BFA6B46D8880EBDFD
:10282000002307B5010001A80422019300F010FA6B
:1028300001980EBD07B56A460300D01D0170012244
:10284000190000F041FA07BD07B56A460300901D64
:1028500001800222190000F037FA07BD07B50422F3
:102860000191010001A800F02FFA07BDF8B514008E
:10287000D31D6A46DB08DB00D31A00AF9D46050076
:10288000220068460E0000F0E3F9220069462800A5
:10289000FDF7C0FD002804D022003100280000F020
:1028A00013FABD46F8BD70B50D000400FFF79EFF9A
:1028B000A84203D029002000FFF7BCFF70BD70B50F
:1028C0000D000400FFF79FFFA84203D0290020005D
:1028D000FFF7BAFF70BD70B50D000400FFF7A0FF51
:1028E000A84203D029002000FFF7B8FF70BD000008
:1028F00010B500F08DFA094C094800F045FA094876
:1029000000F042FA200000F03FFA074800F03CFADD
:1029100000F08EFA054B1C6010BDC04600F00108A7
:1029200000E0010800E8010800F80108841E00200A
:10293000012398430C4B70B5C5182B880B4A002611
:1029400093420FD10A4A0536145AE443A4B29C427A
:1029500008D000F05DFA2100280000F035FA0600EA
:1029600000F066FA300070BD00E00108FFFF0000D3
:10297000840E002070B50526FFF7BAFF0B4C00F05F
:1029800047FA0B4D2988002907D0C943200089B296
:1029900000F01AFA052800D00600064B0234023572
:1029A0009C42EFD100F044FA300070BD00E0010815
:1029B000840E002000F00108F8B51B4B1C5A012CB6
:1029C0000FD80222194D63031D43ADB2184B194EA7
:1029D0009B1A32689A420AD9FFF7CCFF07003800E9
:1029E000F8BDE0258038042280B22D02EEE74708CA
:1029F00000F00EFA30682F43831C3900336000F07A
:102A0000E3F9E02307001B029D4209D1E14330684E
:102A100089B2831C336000F0D7F9052800D0070085
:102A200000F006FADBE7C046840E00200080FFFFBE
:102A300000000208841E002070B50D4D0D4B2A6861
:102A400004009A4204D9FFF795FF0400200070BDEE
:102A500000F0DEF9084B2868195D24022143831C2D
:102A600089B22B6000F0B0F9040000F0E1F9EDE765
:102A7000841E0020FFFF0108840E0020224BF0B5C9
:102A80001C00224A224811880232C94319800233AD
:102A90008242F8D1C0250127ED0113881D498B42E0
:102AA00008D019B21C48002909DB190A6354023204
:102AB0008242F2D98020194B40011A60F0BD190002
:102AC0002940A94213D1911C8C46814219D85188C2
:102AD0006246C94389B20029E9D0114E5B003340F8
:102AE000803380267601B342E1D2E152DFE78021D4
:102AF000C9010B42DBD10A4E59135B003940334008
:102B0000EFE70A00D6E7C046840E002000E0010887
:102B100000F00108FFFF0000FFFF0108841E0020F5
:102B2000FE3F000010B5FFF7E3FEFFF7A7FF10BD63
:102B3000802310B55B01040007209C4210D20C4B8F
:102B40000020E2181B5D8B420AD020001170FFF7B5
:102B5000EFFE002804D17F2C03D82000FFF76CFF84
:102B600010BD012320009843FFF726FFF8E7C04679
:102B7000840E0020F8B5802304000E0007255B01B9
:102B8000984210D2012305001D4018420DD0C9B251
:102B9000FFF7CEFF01340500310AA0B2FFF7C8FFEE
:102BA000052800D005002800F8BD114B1F5AC21897
:102BB000B942F8D01180FFF7BBFE051EF3D17F2C80
:102BC00011D8FAB2F3B205359A4203D02000FFF7CC
:102BD00033FF05003F0A360AB742E4D00134A0B201
:102BE000FFF72AFFDCE72000FFF7E6FEDAE7C04642
:102BF000840E0020802203005201FF20934201D264
:102C0000014AD05C7047C046840E0020084B9842B1
:102C10000BD8084BC318C20705D5074A125C1878B1
:102C20001202104370471888FCE70448FAE7C046D0
:102C3000FE0F0000840E0020850E0020FFFF000024
:102C400010B5FFF71BFF10BD10B5FFF76BFF10BDF0
:102C5000F0B505000C00160085B0002A0BD0CB079C
:102C600009D54B1C471C88B20193FFF7C3FF28709E
:102C70003D00019C013E01232F002B400293A3192C
:102C800001960393019B012B0BD873085B00E4189A
:102C9000ED189E4203D0A0B2FFF7ACFF287005B03C
:102CA000F0BD039B019A981A80B2FFF7AFFF029B19
:102CB000002B05D13880019B0237023B0193E1E7ED
:102CC0003870000A7870F6E7F7B506000C00151E9C
:102CD0000BD0CB0709D5471C3E004B1C0178A0B296
:102CE0000193FFF725FF019C013D2F007319DB1BAA
:102CF000012F0AD86B085B00E418F6189D4203D038
:102D00003178A0B2FFF714FFF7BD59781A7860192F
:102D1000C01B0902114380B2FFF72CFF023FE5E719
:102D20000122094B1000D96811420CD1D9689018C2
:102D3000490708D4D9688018C90604D4D868024065
:102D40000520801AC0B270470020024037B5040049
:102D5000FF25FFF7E5FF012811D1002C01D1053037
:102D60003EBD002301930195019B002B03D1FFF78A
:102D7000D7FF013CEFE7019B013B0193F4E7002CF7
:102D8000EED10620ECE7000070B506000C48FFF716
:102D9000DDFF052813D102250A4C094823692B437E
:102DA000236140236661226913432361FFF7CEFF4D
:102DB000062802D02369AB4323613423E36070BD4E
:102DC000FF0F000000200240F8B5F8231B06C218D0
:102DD0000D4B05000E0007209A4214D81830FFF75B
:102DE000B5FF05280FD10127084C1A3023693B4352
:102DF00023612E80FFF7AAFF062802D02369BB4378
:102E000023613423E360F8BDFEFF07000020024089
:102E1000044B1A69120603D5034A5A60034A5A60E2
:102E20007047C0460020024023016745AB89EFCDC3
:102E30008023024A11690B4313617047002002404E
:102E4000002210B5064B074C074808499A61013229
:102E50009C60D86019611C33102AF7D110BDC046A0
:102E6000DC2200205D340008C1330008DD32000898
:102E7000F0B5124DA022002185B02800FDF746FBD9
:102E80000F4CC02200212000FDF740FB002601AFBF
:102E900039002560F0B201F0A7FB002806D1082216
:102EA00039002800FDF7DEFA3B89A38001360A3598
:102EB0000C34102EEBD105B0F0BDC0462428002004
:102EC000981E0020F823DB01984205D1034B1B68B4
:102ED0005A1E93415B4218407047C046B4240020FC
:102EE000F0B500260227254C85B0254AB30001AD78
:102EF0002900D450F0B201F09BFB011E37D11822FB
:102F00002000FDF703FB09222B882380AB79A370F7
:102F1000AB88A380EB79A3712B7AE3716B88238153
:102F2000AA566B7A002A01DB164A6261012213421B
:102F300000D0A2723B4202D0A27A3A43A27204228B
:102F4000134202D0A17A0A43A2720822134202D08D
:102F5000A17A0A43A2721022134202D0A17A0A4334
:102F6000A2722022134202D0A37A1A43A27201361F
:102F70001834202EB9D105B0F0BDC046DC1F0020AA
:102F8000581F0020A624002010B5FFF759FFFFF7B7
:102F90006FFFFFF7A5FF10BDF0B5040087B0202933
:102FA00022D140780D281FD8FDF722F907172035C8
:102FB000485A6D78AAAEB7C1CACD0822A24903A863
:102FC000FDF750FA202200212000FDF79FFA06238A
:102FD00008222370201D03A91AE0902323708F3B41
:102FE00063700023A370E37007B0F0BDE178A378AD
:102FF0000902C918C82349015B009942F4D20A00AA
:1030000020329A4200D91A002000904B521AC91857
:10301000FDF728FAE8E7A578E678002231002800D5
:1030200001F074FA030A2370607001223100280055
:1030300001F06CFA030AA370E070D5E7A079627919
:103040000002104340BA80B2FFF73CFF2279030030
:10305000511E8A41A078E178D2B201F074FAC3E738
:103060002022FF212000FDF751FA794B01221B6835
:103070002370784B1B68E270637000239218A37072
:1030800022716371B0E70122724B1A60724B3132C8
:103090001A6003F09BF8714B1880A5E76D4E6C4FDA
:1030A00033686D4D002B21D001210020FFF7A4FAD9
:1030B000002100900220FFF79FFA684B01901888CA
:1030C00003F089F8642818D9009B002B15D0019BC8
:1030D000002B12D003F07AF8604B18802B68013B6C
:1030E0002B60002B02D1336001333B603B682370BF
:1030F000336863702B68A37076E732232B60F5E7A3
:103100000022534B1A606FE7E078A3780002202278
:103110002100184300F03CFB66E7E078A37800024A
:103120001F22611C184300F057FB20705CE7E07819
:10313000A37800021C22211D184300F067FBF4E76E
:1031400000F0F2FA50E7A078062800D94CE7FDF726
:103150004FF8040F1D3C475B6600202500212A0024
:103160002000FDF7D3F91023A570237063703BE7AF
:10317000E57800210A2203A8FDF7C8F9280003A971
:1031800001F00FFA20700A22601C24E703AD0A2226
:10319000211D2800E678FDF765F92888FFF792FEE3
:1031A00028806888FFF78EFE6880A888FFF78AFE6F
:1031B000A880E888FFF786FE2900E880300001F04B
:1031C00001FA2070FFF73CFE0EE7E5780A220021A5
:1031D00003A8FDF79BF9280003A901F005FAD1E740
:1031E0000A22211D03A8E578FDF73CF902AB988976
:1031F000FFF768FE02AB988103A9280001F006FAE8
:103200002070FFF735FEEFE6E5780A22002103A8DB
:10321000FDF77CF9280003A901F00AFAB2E70A22B7
:10322000211D03A8E578FDF71DF902ABD888FFF74B
:1032300049FE02ABD88003A9280001F00BFA2070E8
:10324000FFF74EFED0E6C0462C8A0008358A0008FB
:10325000B4240020AC240020A8240020B0240020A6
:103260000D4B07B5188080239B01984202D2FDF7D1
:10327000F5F907BD6A46094B138002F0A7FF012349
:103280006A46034353800223FF33938000980199D9
:10329000FDF77CFBEDE7C046C4280020F0F0FFFFFF
:1032A0000C4B07B5188080239B01984202D2FDF792
:1032B000EBF907BD6A46084B138002F087FF012334
:1032C0006A4618439380508000980199FDF75EFB91
:1032D000EFE7C046C4280020F0F0FFFF70B5214C96
:1032E00006000D00C8B2210001F05BF9011E38D1C3
:1032F0001D4BD88B00281CD000231C4A05F02CFA4B
:1033000000231B4A80185941FA2200239200FDF73E
:103310001FF803F08CFF0022164BEDB2585DB2701F
:1033200001385A5504281CD8FCF762FF18050B0D0C
:1033300018000120EDE7608800280FD0FFF7B0FFEC
:103340000FE0A088F8E7E0880028F7D1238860889C
:10335000002B04D00028F1D11800EFE720880028C6
:10336000ECD170BD9C240020C6280020A08601005E
:10337000E7030000881E002010B50400FFF770FF6F
:103380000C4BD88B002813D000230B4A002105F0EA
:10339000E3F90023094A80185941FA2200239200D8
:1033A000FCF7D6FF03F043FF2000FFF779FF10BDC5
:1033B0000120F7E7C6280020A0860100E7030000EF
:1033C00070B5244C05000E00C8B2210001F0E9F8E8
:1033D00000283CD1AB78204AF6B2012B0FD1687996
:1033E000410701D5935506E0C107FBD5022393554C
:1033F0006088002810D12088002828D00CE0022BFB
:1034000023D168790233184217D1C10707D4013B91
:103410009355A088002812D0FFF722FF17E093559C
:10342000E0880028F8D12088002811D0FFF7A4FFF9
:1034300060880028F0D12088EEE705239355208886
:10344000002804D0FFF798FFF5E70623935570BDD9
:103450006088D1E79C240020881E002070B50D4CA8
:103460000500C8B2210001F09CF8002811D1248881
:10347000002C0ED0AB78032B09D12000FFF77CFF86
:103480002000FFF779FF2000FFF776FF01E0032B14
:10349000F9D870BD9C2400207FB50A4B0400C318E6
:1034A0000D00FF2B09D801AE3100C0B201F079F850
:1034B000002802D1308904B070BD2900200000F03E
:1034C000C5F9F8E700A9FFFF70B54B79002B1CD1B7
:1034D000164BC01884B2FF2C17D8154DE0B2290046
:1034E00001F05FF8002810D11C2363431148C31872
:1034F0009B78012B0BD12B88002B06D06B88002BDF
:1035000003D0AB88EA88134306D0012070BD022B9C
:10351000FBD1AB88002BF8D01C2301225C4300199F
:1035200043799343437102F0B9F9EEE700A9FFFF35
:103530009C240020DC22002010B5104C0A21A08819
:10354000FCF76AFE0E4B0A211870E2880D4B1A70C8
:1035500062890D4B1A70A2890C4B1A70E089FCF736
:103560005BFE0B4B1870228A0A4B1A70628A0A4B58
:103570001A70A28A094B1A7010BDC046C6280020D6
:10358000160C0020170C0020180C0020190C00202D
:103590001A0C00201B0C00201C0C00201D0C00200D
:1035A00013B50800032A24D90623134A1178527848
:1035B000CC070B40E40F234308240C402343102482
:1035C0000C40234320240C40234340240C40C909D1
:1035D000C90123430B43D1079207C90DD20F0B43F7
:1035E0005202134301A904220193FCF73BFF002080
:1035F00016BD01204042FBE71C2800200300080004
:1036000011005A8810B58A4204D85968FCF72AFF7D
:10361000002010BD01204042FBE7000013B5032A43
:1036200037D9042201A8FCF71DFFFDF7D9FA0121C3
:10363000019A194B50081400084088400C40204360
:1036400094080C40A4002043D4080C40E40020431C
:1036500014090C402401204354090C406401204308
:1036600094090C40A4012043D4090C40E4012043F8
:10367000140A520A0C4011401A88240249022043BD
:10368000920A0843920210431880FEF714FC0020AF
:1036900016BD01204042FBE71C28002010B5024B5C
:1036A000188800F039FB10BDC628002070B5002432
:1036B000A5B2280000F061FF054B195D884202D0D9
:1036C000280000F065FF0134242CF1D170BDC04604
:1036D000C628002010B54388934207D81A004068D6
:1036E000FCF7C0FEFFF7E2FF002010BD01204042C2
:1036F000FBE7000070B50024A0B200F03EFF084BCD
:1037000018550134242CF7D10024064D2B69002BC9
:1037100000D0984701341435152CF7D170BDC04640
:10372000C6280020C88B0008AF220820154B10B512
:103730001A80154A14215A800A22188158820020C2
:103740009A80D9805A818918DA811E329A820A3287
:10375000DA82963299811A833231C33A19829A8376
:10376000D883198458830333DA77FFF79FFFFDF777
:1037700037FA8020054BC0001880FEF79CFBFFF74E
:10378000B9FF10BDC6280020881300001C280020A7
:10379000F0B50D0085B00190FF2128001600FCF760
:1037A000B5FE00200A4C871CB7420FD802AA911D13
:1037B0002388019A0B80934204D902222818FCF72F
:1037C00051FE3800034B1434A342ECD105B0F0BDD8
:1037D000C88B00086C8D0008F8B50400002314277E
:1037E000094D3E005E437019AE5BA64205D1836869
:1037F000002B06D10120404204E00133152BF0D10B
:10380000F8E79847F8BDC046C88B0008F8B5002314
:1038100014270D4C3E005E433519A65B864205D148
:10382000EB68002B06D1012464420BE00133152B19
:10383000F0D1F8E728009847041E03D12B69002B2C
:1038400000D098472000F8BDC88B0008014B188BAA
:103850007047C046C6280020024B587F01231840FD
:103860007047C046C62800200120024B5B7F5B08E2
:1038700098437047C6280020024B587F0007C00FAE
:103880007047C046C6280020014BD88A7047C04602
:10389000C6280020272806D81D2818D8031F002076
:1038A000192B0ED97047382805D82C2805D82B2875
:1038B00003D00020F6E76428FBD1074BDB7E9B0892
:1038C00002E0054BDB7E1B0901209843EAE7024B2F
:1038D000DB7EDB08F8E7C046C6280020024BD87E16
:1038E0008006C00F7047C046C6280020024BD87E15
:1038F0004006C00F7047C046C628002010B50A20F9
:1039000003F095FC10BD0000F8B50123002420262B
:10391000134D2B70802132001248C90004F03BFB8C
:10392000320004210F4804F036FB01342B78E4B256
:10393000A342EFD8FFF7E2FF0226002101272C78EF
:103940000848094DCBB29C4200D8F8BD0269036912
:10395000920A5B0833403A4013434B550131F1E77B
:10396000BB24002000040048B9240020F0B5002446
:103970008BB001943C4B1B78A34202D801980BB04A
:10398000F0BD02210320394B1A691B69920A5B08BA
:103990000B4001390A40364913430A5D10409842F2
:1039A0005ED0920013430F22DBB2324D0B55134011
:1039B000314AD35C2A5D9B185BB200222B55032B46
:1039C0001FDDFC272D4A04AE135D347001331355FF
:1039D000777002F0FBFB0423FF33B38070800599FE
:1039E0000498FCF7D3FF02AB1C705F7002F0EEFB93
:1039F000032202AB9A80588002980399FCF7C6FF15
:103A000001222B5703331EDAFD271C4A08AE135D33
:103A10003470013B1355777002F0D8FB81235B00B3
:103A2000B3807080099906AE0898FCF7AFFF347038
:103A3000777002F0CBFB02237080B3800698079961
:103A4000FCF7A4FF01222B570D490B4004D504219C
:103A5000013B49420B4301332B55019B1343019317
:103A60000134E4B286E7C046BB24002000040048CD
:103A7000B9240020B82400206C8D0008BA2400204E
:103A800003000080082210B50D4C022023789343D8
:103A90002370FEF749F810222378134204D0934391
:103AA00002202370FEF71CF820202378034203D065
:103AB00083432370FEF714F8FEF74AF910BDC046A1
:103AC000100C002010B50400002902D00220FEF7DF
:103AD00023F8C022054B9201E3189BB2934200D217
:103AE000E4B22000FCF7BAFD10BDC04600E0FFFFC5
:103AF000C022054B10B5C3189BB29201934200D26D
:103B0000C0B2FCF7C1FD10BD00E0FFFF0F230209AA
:103B10001A4018400E3B834070B5064D5200545F6A
:103B20001BB2002902D02343535370BD9C4354530E
:103B3000FBE7C046C82400200F22030904491340B4
:103B40005B005B5A10400341180001231840704786
:103B5000C8240020F7B5474E1C0033780500464FB7
:103B6000009101925B0700D474E03888A84202D02B
:103B7000002D00D06EE004233178022599430A001D
:103B800031702A40033B294209D13C4B00991B88E4
:103B9000CB1A3B499BB209888B4252411300012248
:103BA000190011400B00022593403278AA431343B9
:103BB0003370FFF7ABFFFDF78DFF284206D01023CF
:103BC0003278280013433370FDF792FFFDF782FF30
:103BD0002023284D184205D02A7818001A432A704D
:103BE000FDF786FF2978244E890722003088C90F07
:103BF000FFF768FF019B002B05D1224BD88B0028D3
:103C00000ED101201AE021003088FFF767FE00285E
:103C1000F3D021003088FFF769FE0028EDD1F7BD11
:103C20000023194A002104F097FD0023174A801849
:103C30005941FA2200239200FCF78AFB03F0F7FABD
:103C40002978220089073088C90FFFF751FFFFF755
:103C500019FF0AE02800FFF76FFF2200010028008B
:103C6000FFF746FF3B88AB42F1D0044B009A1A8025
:103C7000D5E7C046100C0020BC240020E82400201A
:103C8000120C0020C6280020A0860100E7030000D7
:103C900010B501240C4BDB7E234214D00B4B1B7858
:103CA0005B0710D502F092FA094B0A4A1B8812886A
:103CB000C31A9BB201009A4205D8074B220018880C
:103CC000064BFFF747FF10BDC6280020100C002050
:103CD000E8240020120C0020BC240020BE24002078
:103CE000012010B5040005490B78DA07D20F944380
:103CF000834323430B70FFF7C5FE10BD100C00205B
:103D0000012110B5034A13788B431370FFF7BAFEF5
:103D100010BDC046100C0020014B18807047C046F3
:103D2000120C0020F7B57B4B0400DB7E0E00DB0796
:103D300002D401252800FEBD02F048FA01907379F3
:103D4000002B27D0744D2B785B0705D5002201008E
:103D5000724B1000FFF7FEFE714B9C4217D0714B67
:103D60009C4207D0704B9C4206D101232A78134312
:103D70002B7001E0FFF7B4FFC0226C4B9201E318F7
:103D80009BB293420DD20022694B1A80D1E7FFF714
:103D9000B7FFF1E7E12C3AD110215F4A13788B434A
:103DA00013705D4F3B78DB07C3D531002000FFF770
:103DB00071FD7579002800D1A7E0002D00D19DE0AC
:103DC000FDF788FE0500FDF7D5FE02220543EDB2A2
:103DD00095432AD00023150055490B804D4BDB7EBF
:103DE0001D40134221D129002000FFF78FFE320031
:103DF00029002000FFF766FEFDF7BCFE0223984372
:103E0000C0B2FDF713FF0220FDF7E8FF92E7E52CB3
:103E100003D1414A20211378C1E7C022434B9201CC
:103E2000E3189BB29342BCD283E73C4D0A22310097
:103E30002800FCF717FB00236B803D4B1B889C423E
:103E40003CD131002000FFF749FD002836D03B78F7
:103E50009B072CD4374B31001D88019B5D1B344BD5
:103E6000ADB21888FFF718FB854227D2FDF732FE66
:103E70000222104206D01023397810000B433B7009
:103E8000FDF736FEFDF726FE2023184205D03A78CE
:103E900018001A433A70FDF72BFE3978244B890736
:103EA00032001888C90FFFF70DFE002542E7204BAE
:103EB00031001888FFF71AFD0028CBD1FDF70AFE64
:103EC0000500FDF757FE05430220022628403D78F5
:103ED000B54305433D70FDF74DFEB043C0B2FDF75D
:103EE000A5FE134B019A1C80124B30001A8004234C
:103EF0003A7813433B70FDF771FFD6E733002A0091
:103F000020000199FFF726FE14E7002D00D03AE7C4
:103F10000FE7C046C6280020100C0020BE24002059
:103F2000147C0000157C0000137C000000E0FFFF03
:103F3000BC240020E824002070470000F7B51B4F88
:103F40003B78002B07D01A4E34783B78A34203D835
:103F500000233B703370F7BD631CDBB201933370F9
:103F60000E236343134DEB181A79002A10D01A89D7
:103F7000002A0FD15889104A90420BD00121FFF737
:103F8000DBFF0E235C4300232D192B71FDF7D4FDBD
:103F9000019CDAE758881A88D988000410439A8867
:103FA000090411431A89FDF7E5FCEAE765250020BD
:103FB00064250020F4240020FFFF0000704700006B
:103FC0000022074B1A801023064AD179002901D11B
:103FD00091711172013B9BB20C32002BF5D17047ED
:103FE00066250020981E0020F0B50E490E4B0C7877
:103FF0001A78032623000D4D9A420FD05F007F5B95
:1040000087420CD10C224243094880180122827158
:10401000A34203D19B18023213400B70F0BD013351
:104020003340E9E7F2240020F3240020EA240020B2
:10403000981E0020F0B58B7985B00190002B39D106
:104040001E001F4A1F4C127803920398DAB2904266
:104050002DD9A28917000A6802921B4A94460022B1
:10406000029855002D5A002D06D0AF4201D190B2D2
:1040700084460132D2B2F3E7134884451DD00120B3
:104080006746B8400643012090400200F6B2013A6C
:10409000B24211D10E2253430A4C8E88E218168187
:1040A000042616711D53019B53810123CB71019886
:1040B000FFF79AFF05B0F0BD257101330E34C4E758
:1040C00065250020F4240020FFFF000070B50C25BA
:1040D00003260B4B1C780B4B1B78A34204D1FFF734
:1040E0002DFFFFF76DFF70BD2900074B6200D05A0E
:1040F000064B41430134C918FFF79CFF3440EAE7FF
:10410000F2240020F3240020EA240020981E00203E
:10411000F7B500240125036822000193AC46230073
:10412000019E5500AD5B002D0FD00B681F000023D2
:1041300004E0B54200D164460133DBB25E00F65BB9
:10414000002EF6D10132D2B2EAE7002C03D09A4217
:1041500000D90800FEBD2000FCE70000104B70B540
:104160001B78002B14D00F4C2088002810D002F0B0
:1041700032F80D4E338883420AD20C4B00251A7850
:104180000B4B1B789A4204D0FFF7A0FF35802580A7
:1041900070BDFFF7D3FE2580FFF712FFF8E7C0469A
:1041A000140C00206825002066250020F224002041
:1041B000F32400200023074A10B51380064A137029
:1041C000064B1A78064B1A70FFF7FAFEFFF7B6FE99
:1041D00010BDC04668250020140C0020F3240020E8
:1041E000F2240020054B10B51A78002A02D0FFF700
:1041F000E1FF10BD01221A70FBE7C046140C00203D
:10420000F0B5994B8BB003900291984208D14C794C
:10421000002C1BD00122954B1A7020000BB0F0BD72
:10422000934B039A9A4206D1029B5C79002C0DD0E5
:10423000FFF7C0FFF1E78F4B039A9A4206D1029B2A
:104240005C79002C02D0FFF7CDFFE6E78A4B188897
:104250008A4B1B881843FCF74AFB0400FFF7AEFEAD
:10426000844204D0029B1988FEF770F80390002561
:10427000834C049500262268824F73009B5A002BC2
:1042800006D00399994200D1B7B20136F6B2F4E7ED
:104290007C4A0193974230D0A079002801D1734B1A
:1042A0001B78029A52790192002A00D18BE0002BF0
:1042B00000D188E021002800FFF7E6FAE3790590B5
:1042C000002B09D10122BA40237A134323726E4B8B
:1042D0001A88824200D218800123B340227A013B1F
:1042E00093420AD1694B1888002839D001F073FF36
:1042F000059B834234D20123A371049A019B0135AB
:104300001343ADB204930C34102DB3D1029B5B79EF
:10431000002B00D197E0049B002B00D193E001F02B
:1043200055FF5A4B18805A4B1C78072C14D8621C26
:104330001A7002990A2207A8FCF794F80E23634327
:10434000544C0A22E418200007A9FCF78BF801233B
:104350005B426381039BA3810124049B5C405CE777
:1043600000204D4B1E784D4B1B780593059B9E42BC
:104370000AD1A042C1D04A4B7200D5520323013664
:104380001E40464B1E70B8E7454B7200D75A0C23AF
:104390005F433B4B2100FF183800FFF7B9FE0028B0
:1043A0000DD001238371A042A7D03B4A13789E42CF
:1043B00005D1874203D10321731C0B4013700323E3
:1043C00001361E40D2E7E27901920199227A002952
:1043D00013D10131B1400139914208D1002803D1F4
:1043E00001221A40019202E02800FFF7FDFD0122A0
:1043F000BA40237A934323727FE713001100501EC3
:104400003B4101400242EBD101221342E8D0A38894
:10441000002B13D007AE07323000FCF777F801F01D
:10442000D5FE04233371A3887080338107980899DF
:10443000099AFDF79FFA0023E371D8E719002800D5
:10444000FFF77AFDF7E7144B1A78144B1B789A4262
:1044500002D0FFF73BFE7FE7FFF770FD00220B4B1A
:104460001A80FFF7ADFD77E7507C0000140C0020A8
:10447000517C0000527C0000AA0D0020A40D0020F9
:10448000981E0020FFFF0000662500206825002000
:1044900065250020F4240020F2240020F3240020CD
:1044A000EA2400201020704706234B4352009B183B
:1044B0001222504318182930704770B500240F2875
:1044C0000FD802290DD8022A0BD8FFF7EDFF0500FF
:1044D000FEF78CF90402681CFEF788F9A4B20443C5
:1044E000A4B2200070BD70B51D000F280DD80229A0
:1044F0000BD8022A09D8FFF7D7FF0400290AFEF7D4
:10450000D2F9E9B2601CFEF7CEF970BD70B50500B6
:10451000160000200F2D15D8814213D15042504172
:10452000AD004A35FF3540002818FEF75FF9040258
:10453000A4B20120002E00D102302818FEF756F94F
:10454000204380B270BD70B516001D000F2813D82F
:10455000002911D18400504250414A34FF344000B8
:104560002018290AFEF79FF90120002E00D1023001
:10457000E9B22018FEF797F970BD030010B50020CE
:10458000232B04D88A33FF3398B2FEF72FF910BDDE
:1045900010B5232804D88A30FF3080B2FEF783F9A3
:1045A00010BD030010B508000F2B08D80A22534392
:1045B000AE33FF331900FEF74BFB002010BD012086
:1045C0004042FBE7030010B508000F2B08D80A2271
:1045D0005343AE33FF331900FEF776FB002010BDC6
:1045E00001204042FBE70000030010B508000F2B3C
:1045F00007D80A22534304495918FEF729FB002023
:1046000010BD01204042FBE74D020000030010B541
:1046100008000F2B07D80A22534304495918FEF704
:1046200053FB002010BD01204042FBE74D0200007B
:10463000030010B508001F2B07D80A225343044972
:104640005918FEF705FB002010BD01204042FBE792
:10465000ED020000030010B508001F2B07D80A2246
:10466000534304495918FEF72FFB002010BD0120C9
:104670004042FBE7ED020000F0B5394B8DB01A68FF
:10468000019201221A6000230093002713E06B4679
:104690001C78FEB2EAB231002000FBF78BFFEAB2D1
:1046A0000300310020000135FFF71DFF032DEED17F
:1046B0000137032F01D00025E9E701220021200066
:1046C000FBF78AFF0122030000212000FFF73BFFD8
:1046D000002220001100FBF77FFF002203001100E1
:1046E0002000FFF730FF009B01330093102BCCD14B
:1046F000FFF71AF80024C82203AD2C806C80AC8030
:10470000EC802A81E0B229000134FFF75BFF102C16
:10471000F8D10A22002106A8FBF7F8FE0024E0B237
:1047200006A90134FFF772FF102CF8D109220021ED
:1047300009A8FBF7EBFE0123252100245B4202AA16
:104740001384083352181370E0B209A90134FFF73B
:1047500081FF202CF8D1024B019A1A600DB0F0BDF8
:10476000B4240020F8B5293090271400050056180D
:104770007F00B44200D1F8BD2B00293BBB4206DAD2
:104780002800FEF733F8207001350134F1E70023EB
:104790002370F9E79023F0B55B0005000F001400CB
:1047A00085B098420ED21B1A8B420BDB03002933D3
:1047B00002932E4B1B68002B06D09026E51976003D
:1047C000AC4245D105B0F0BD012302001A40019270
:1047D00018420CD02830FEF709F80302207818435D
:1047E000F82300B2DB01984201D1FF232370ED19B9
:1047F0003E00EB0712D57E1EA3190393029BA5571B
:10480000D819FDF7F3FFF8232D0205432DB2DB0184
:104810009D4202D1FF23A2191370B6B2F823DB0127
:104820009C46FF21019B9E42C7D9019B019AE0183B
:10483000A25C0133E518E35C120213431BB263452B
:1048400001D101702970019B02339BB20193E9E70A
:10485000029B293BB34203DA21780298FEF723F842
:10486000029B013401330293AAE7C046B42400201E
:10487000030010B500200F2B06D8022904D8022A05
:1048800002D81800FFF719FE10BD0B0010B500216B
:104890000F2804D88B4202D1FFF738FE0100080030
:1048A00010BD40207047000000487047D30B000047
:1048B00070B5140005005618084BE818B44200D132
:1048C00070BD074B9D4205DCFDF790FF2070013461
:1048D0000135F1E700232370F9E7C0462D040000FD
:1048E000D20B000070B5140005005618064BE818EE
:1048F000B44200D170BD054B9D4202DC2178FDF72A
:10490000D2FF01340135F1E72D040000D20B000085
:1049100070B58025044C6D01200000210134FDF7A5
:10492000C2FFAC42F8D170BD2D040000F0B5050007
:1049300085B03F2800D982E04248FDF757FF0028A4
:104940007DD18026404C7601002D22D10395200098
:10495000FDF74CFF002103AD661C2870697088428A
:104960006DD0012867D13000FDF740FFA71C6870AB
:10497000002864D0431E022B16D83800FDF736FFFE
:10498000E61CA870002802D0280000F0ABFE34001E
:10499000DDE7B44253D02000FDF728FF002801D105
:1049A000013DEDB20134CFE7431F022B29D8E31CB0
:1049B00038000193FDF71AFFE61CA8700028E6D026
:1049C0000198FDF713FF261DE8700028DFD002AB29
:1049D000D88802AB5880FF231B02984201D90002FD
:1049E00080B26B78062B06D0072B07D0052BCED1D3
:1049F000FEF7C2FCCBE7FEF733FCC8E7FEF750FC3E
:104A0000C5E73E000428C2D13800FDF7EFFE0500DF
:104A1000E01C261DFDF7EAFE002D10D000280ED068
:104A2000FF2301385843013D4519013DAFD36420B0
:104A300002F0FDFBF9E7280000F00AFEA7E705B049
:104A4000F0BDC046FF0F00002D040000234B70B5E1
:104A50000C000125984236D1FDF73CF8AA23204AE4
:104A60000340917E294205D04422024055426A41CA
:104A7000524213408A0705D51122024055426A412D
:104A8000524213404A0705D58822024055426A41E6
:104A9000524213400A0705D522221040424250419B
:104AA0004042034061790F4A00290ED01900481E88
:104AB000814135201170002B00D10C3801F044FAEF
:104AC000FDF746F90025280070BD13783520002B2E
:104AD00000D10C3801F054FAF2E7C046167C000011
:104AE000C62800206A250020F8B50B4F040038685E
:104AF00001F078FBFA23094E094D5B00984205D27C
:104B00003A6832602B60074B1C80F8BD01F026FB31
:104B100032233060F6E7C04680250020782500204B
:104B2000742500207C25002010B582790300002028
:104B30000A420AD19C780130002C06D09B7A214091
:104B40001B0703D54B1E9941C8B210BD0F2023008F
:104B5000240903400840090923430843181A434223
:104B60005841C0B2F1E70000F8B5244E07003368A1
:104B7000002B3CD00022224B1A80FCF7F5FFFCF7FB
:104B8000E7FFF822336852011C89611EFF39914208
:104B900001D21C4A1440E4B225006A1E9541DA682D
:104BA000EDB2002A03D00020196990470540002D7E
:104BB00006D0231FDBB2A02B1AD8200001F0E0F9A9
:104BC000114C002F0ED033689A7AD2060AD422787C
:104BD000002A07D018880D4A431E9BB2934201D881
:104BE000FFF782FFFDF7B4F8002333602370F8BDB0
:104BF000FDF7AEF82000FBF76BFFE1E76C25002026
:104C00007C250020FFE0FFFF702500203E7E000095
:104C1000002010B5024B1870FFF7A6FF10BDC0466C
:104C2000150C0020054B10B51A78002A02D0FFF7AA
:104C3000EFFF10BD01221A70FBE7C046150C0020E3
:104C400070B50A4C2388002B0ED0094E306801F055
:104C5000C9FA084D2B68984206D32088FBF7FEFC62
:104C60000023238033602B6070BDC0467C2500206C
:104C70007825002074250020F0B58BB003914D7984
:104C80000600002D13D09F4B984209D09E4B9842AE
:104C90000AD09E4B98420AD1FFF7C4FF00230CE0D4
:104CA00001229B4B1A70F9E7FFF7B2FFF6E7984B2A
:104CB0001B780193002B04D10123019301980BB0C1
:104CC000F0BD3300E03B9BB20293FCF703FF07000B
:104CD000FCF7B4FE0400FCF74DFF029B044327439E
:104CE0007CB2FFB2072B48D80723012033409840FD
:104CF000270040B28743FFB2002D01D00443E7B242
:104D0000029B072B02D9002D00D1C8E0039B188815
:104D1000FCF75AFB7F4B1B680693002B00D1BEE0CB
:104D20000123834008937C4B1B6807937B4B1B88B4
:104D3000099300230593059B069A9B009C58002C21
:104D400000D1ACE0002F02D1A378002B11D1A388B1
:104D5000089A1A420DD00722A37A134200D1CBE061
:104D6000029A072A18D8002D14D05B08012213409C
:104D700015D1059B0133DBB2DCE7684B002D00D178
:104D8000B0E01E8001F0EAF90022654B1860654B27
:104D90001A80B5E79B08E9E701221342E9D023888E
:104DA00003939E4201D1002DE3D0079B9C42E0D0AB
:104DB0006369002B02D01B78002BDAD03900200069
:104DC000FFF7B2FE0028D4D0039B04959E4201D089
:104DD00000230493039A53425341049A134304D18A
:104DE000039A09998A42C4D104930020FFF7BCFEBC
:104DF0000122494B1C604C4B1A70E079FCF7AEFE67
:104E0000049B002B09D1039B002B06D02388D8B22A
:104E1000043BA02B28D801F0B3F8F82325895B01C7
:104E20006A1EFF3A9A4201D2404B1D400027404A79
:104E30006B1E9BB29A427F41E368FFB2002B03D006
:104E40000120216998470740002F0AD02089FBF7ED
:104E5000CFFBFCF777FE029B072B08D82800FFF753
:104E600043FEFCF775FF09E0FBF732FED5E7ECB235
:104E7000043DA02D09D8200001F066F8049B002B0A
:104E800000D119E7FCF764FF08E7FCF761FFFA209F
:104E9000800002F0CCF92000FBF7D6FDEEE71E4BB8
:104EA0001868002800D107E7029B072B09D83900B2
:104EB000FFF73AFE002800D0FEE60130FFF754FE6F
:104EC000FCE60388B34205D1002D06D1164B1D70B8
:104ED0000020F3E7002D00D1EEE6837A9B0600D593
:104EE000EAE6F5E71A88B24200D009E71D800C4BCC
:104EF0001D600C4B1D8003E70723029A9A4200D8DD
:104F000031E74CE75E7C00005F7C00005D7C0000C8
:104F1000150C00200C0C00206C2500207E250020A4
:104F2000802500207C25002070250020FFE0FFFF69
:104F30003E7E000070B505004879002800D1CCE025
:104F4000674BEB18222B00D9ABE0FCF7AFFF654CA9
:104F5000654B2080E818212812D8FBF749F93FADAE
:104F600048191C4B1F4E5728A52B5A2E5D873160C0
:104F70008F37676D225125543B6A7A99A31543B543
:104F80000123227813434FE00823627813432CE077
:104F900002232278F6E704232278F3E70823227815
:104FA000F0E701236278F1E702236278EEE710234D
:104FB0002278E7E720232278E4E740232278E1E71C
:104FC000FBF70EFE802322785B42DBE70C2322787E
:104FD0009A43D7E7032362789A43D7E701222378DD
:104FE000934321E0082263789343637053E00222E5
:104FF0002378F5E704222378F2E708222378EFE705
:1050000001226378F0E702226378EDE7102223782B
:10501000E6E720222378E3E740222378E0E7FBF766
:10502000DFFD7F2223781340237034E00C222378A5
:10503000D6E703226378D7E70122042023785907B3
:10504000C90F8A43910083430B430821D2008B434D
:1050500098E7012108006378DA07D20F9043022213
:105060008B430343410093430B43BEE70122237864
:105070005906C90F8A4392014021E8E7FBF7B0FDCA
:1050800001222378D9094A407F21D2010B4079E7D8
:105090000120FCF77FFF2088FCF70DFFFBF7A0FD48
:1050A000002070BD0020F4E701222378D906C90F43
:1050B0008A4312011021CAE7012108002378DA0788
:1050C000D20F90430200C2E7012263781907C90F8B
:1050D0008A430821D2008B4358E70120E1E7C0460C
:1050E0000090FFFF1C280020FF8FFFFFB5235843CF
:1050F000002806DA8038C317DBB21818001240B255
:1051000070478030FAE7000010B5184B1A78184B3A
:105110001B89D1070CD5174A107843439B109BB2CB
:105120007F20834203D87E38002B00D0D8B210BD38
:10513000910704D50F4A107843435B10EFE75207FD
:1051400003D50C4A10784343E9E70B4A107800284E
:10515000E6D00A4A1178074A127853438842DED2D1
:105160005843FBF79FF883B2DAE7C0468E2500204C
:10517000C6280020180C00208F250020190C0020C4
:1051800010B5154B1A7801231A4207D0134B1B7820
:105190009B080120002B0ED0D8B20CE0910703D55C
:1051A0000E4B1B785B08F4E7520705D50B4B1B78B9
:1051B0007F208342EDD910BD094A1278002AEBD036
:1051C000084B1978054B18788A4201D383B2EFE770
:1051D0005043FBF767F8F9E78E2500201C0C0020F0
:1051E000902500201D0C002010B52F4CE278A378EC
:1051F0001343627913432279134305D008222B4BC2
:105200001A702B4B073A1A70CD2804D1FFF77CFF98
:105210004042E07010BDCE2802D1FFF775FFF8E7DD
:10522000CF2804D1FFF770FF4042A070F2E7D028EA
:1052300002D1FFF769FFF8E7D92803D1FFF7A0FFF4
:105240002071E7E7DA2803D1FFF79AFF4042F7E73A
:10525000DB2804D1FFF794FF40426071DAE7DC28D5
:1052600002D1FFF78DFFF8E703002F33DBB2072BE6
:1052700006D80123D1388340627813436370C9E7AD
:10528000DD2805D101230B4A11780B431370C1E7C8
:10529000DE2803D1074A02231178F6E7DF28B9D1C7
:1052A000044A04231178F0E7882500208F25002088
:1052B000902500208E250020022210B5364B9A56EC
:1052C000CD280AD1D9787F290DD90021D9708A42F9
:1052D0000BD10021314A117007E0CE280ED10321F5
:1052E00059560029F1DC002A0ED01A795B79134354
:1052F0005AB2002B01D12A4B1A7010BDCF2808D109
:10530000002AF0DA00229A7003229A56002AECD181
:10531000DFE7D02802D1002AF4DCE4E70421595663
:10532000D92804D10029DEDD00211971DBE7DA2854
:1053300002D10029D7DAF7E705215956DB2804D135
:105340000029D0DA00215971CDE7DC2802D10029EB
:10535000F8DCC8E701002F31C9B2072907D80121BD
:10536000D13881400800597881435970BBE7DD2866
:1053700005D101240B480178A1430170B3E7DE2871
:1053800003D1084802240178F6E7DF28ABD10548AD
:1053900004240178F0E7C046882500208F250020EE
:1053A000902500208E25002010B500F00FFF03008F
:1053B00007488278C1780A4301D0064A13800279EF
:1053C00041790A4301D0044A138000F0EDFC10BD7E
:1053D000882500208425002086250020062210B57F
:1053E00000210548FBF792F80023044A1370044A91
:1053F0001370044A137010BD882500208F250020EB
:10540000902500208E2500200222825603000120D4
:10541000002A0BD103229A56002A07D104229A5659
:10542000002A03D105201856431E984170470000FA
:1054300037B5614C062221006846FBF713F80023BC
:105440006A46A370E370237163716B46D2789B78D0
:1054500013430BD0594B188800F0BDFE58490B7808
:10546000002B28D0574A127890422DDC6B466A46B2
:105470001B79527913430BD0534B188800F0ABFEC5
:1054800052490B78002B55D0514A127890425ADC81
:105490006946200000F0AEFD002804D12000FFF78F
:1054A000B3FF002801D0FFF77FFF062269462000E6
:1054B000FAF7D8FF37BD474A15780A226A43904267
:1054C000D4DD01330B7001E0FF2BFAD16B460225CE
:1054D0005D57002D07D0FFF717FE0123002D00DCDC
:1054E000FE334343A3706B4603255D57002D07D061
:1054F000FFF70AFE0123002D00DCFE334343E37077
:10550000022020560028B1D003256557002DADD0CC
:10551000FFF7ECFD002807D0A0702800FFF7E6FD9C
:10552000002804D0E070A1E70123A370F5E7012370
:10553000E3709BE7284A15780A226A439042A7DD68
:1055400001330B7001E0FF2BFAD16B4604255D5748
:10555000002D07D0FFF714FE0123002D00DCFE33E1
:10556000434323716B4605255D57002D07D0FFF798
:1055700007FE0123002D00DCFE334343637104204A
:105580002056002800D183E705256557002D00D15E
:105590007EE7FFF7ABFD002807D020712800FFF75A
:1055A000A5FD002804D0607172E701232371F5E79F
:1055B000012363716CE7C046882500208425002004
:1055C0008F250020170C0020862500209025002024
:1055D0001B0C0020160C00201A0C0020F8B5184BEC
:1055E000C1081D5C07231840164B174C5A5C174F17
:1055F0000241645C7F5C01231600044107411E40A8
:105600001C401F401A4202D0E120FBF71DFA002C7B
:1056100002D0E620FBF718FA2800FBF79FFA002CCF
:1056200002D0E620FBF754FA002E02D0E120FBF76F
:105630004FFA002F02D02C20FBF790FAF8BDC0469D
:105640009C8D00081C8E00087C8D00088C8D000845
:10565000F7B5040004260A270191207800283DD0E0
:10566000012838D16378012B0ED1A078A51CFBF757
:1056700075FA2C00019D0134002DEED06420013D0F
:1056800001F0D5FDEDB2F7E7022B04D1A078A51CFF
:10569000FBF7DAF9EDE7032B04D1A078A51CFBF7A3
:1056A00017FAE6E7042B01D00134E3E700250C4AA2
:1056B000A3780234D05C611C304206D1002DD9D0D1
:1056C000642001F0B4FD013DF8E77D43303B5D19F6
:1056D00063780C00EEE7FFF781FFCBE7F7BDC0462C
:1056E0008588000810B50021FFF7B2FF10BD00004B
:1056F000F0B585B01D000AAB1B7801910293140030
:10570000427907002B4B002A12D01C7000F05EFD7E
:10571000294B188023002033DBB2072B06D8072241
:1057200001201440A040C0B2FBF724FA05B0F0BD40
:105730001E78A64233D1204B188800F04CFD39006A
:1057400003900198FDF7A8FE039B834227D22C000B
:105750002034AE4215D033002033DBB2072B06D8FD
:10576000072301201E40B040C0B2FBF70BFAE3B2A2
:10577000072B06D8072301202B409840C0B2FBF727
:10578000F9F90298E4B2FBF7E9F9072CCED8072320
:1057900001201D40A840C0B2FBF7F4F9C6E7230082
:1057A0002033DBB2072BC1D8072201201440A040D0
:1057B000F1E7C0469125002092250020214B13B52A
:1057C000C0180C00062833D8FAF712FD141A040E7C
:1057D00020262C0026230093BB331A001A492000F0
:1057E000FFF786FF002016BD27230093BE331A0063
:1057F0001649F4E72623E02200931549BB33EEE770
:105800002723E42200931349BE33E8E72623E2224C
:1058100000931149BB33E2E72723E62200930F49A7
:10582000BE33DCE72823E52200930D49273BD6E76A
:105830004879002803D000220A4B1A70D3E70120D0
:10584000D1E7C046E883FFFF1A7C00001B7C000004
:10585000187C0000197C00001C7C00001D7C0000EE
:105860001E7C00009125002010B5002A00D0904732
:1058700010BD10B5040002698169FFF7F5FFE078FB
:10588000FCF752F92079FCF733F9FCF761FA0622AC
:1058900000212000FAF73AFE10BD0000427910B551
:1058A000040093070FD4022313434371C078FCF71D
:1058B00033F92079FCF714F9FCF74AFA2000E26882
:1058C000A169FFF7D1FF0022044B1A806379DB073F
:1058D00002D42000FFF7CDFF10BDC0469425002064
:1058E00070B54C790500002C13D00C4B1B88002B95
:1058F00011D083420FD01C22DBB253430849183A1F
:10590000C8184679324342715D52FFF7C7FFFCF772
:1059100013F9200070BD0024FBE7C0469425002049
:10592000DC220020234B70B5C3180500FF2B2ED8B6
:105930001C244E7901223100C3B25C431E4B11403E
:10594000E418637993430B436371002E21D000F078
:105950003DFC1A4B1880A3780133A370FCF7BAF80A
:10596000E070FCF7D3F8E3781843E070FCF702F935
:10597000A2682071A1692000FFF776FF02226379F7
:1059800013405A4253415B421D400D4B1D80012084
:1059900070BD20006269A169FFF766FF63799B070C
:1059A000F5D52000FFF765FF054B1A88AA42EED116
:1059B0001E80ECE700A9FFFFDC22002096250020D6
:1059C000942500207FB5104C2388002B1AD00F4B54
:1059D000188800F000FC2688050000210A2201A892
:1059E000FAF794FD300001A9FDF756FD854209D96B
:1059F0001C20237843430648C01843795B0701D431
:105A0000FFF74CFF7FBDC04694250020962500205F
:105A1000DC2200201C4B70B5984209D01B4B01249E
:105A200098421AD14C79002C2BD000F037F804E0C2
:105A30004C79002C13D000F02BF8FBF737FC00F06A
:105A400027F8040000F02AF8050000F02DF82900DE
:105A500002002000FBF73CFD0024200070BD00F098
:105A600017F8FBF72FFC00F013F8050000F016F80C
:105A7000060000F019F8310002002800FBF728FDAD
:105A8000EBE700F00BF8ECE7777C0000787C000097
:105A9000014B18787047C0461F0C0020014B187846
:105AA0007047C046200C0020014B18787047C04654
:105AB0001E0C002010B52520FCF798FE6D2801D0A3
:105AC000002010BD2620FCF791FE3528F8D10E38B5
:105AD000FCF78CFEAA3843425841F2E710B56D211D
